:100000000C942A000C9447000C9447000C94470071
:100010000C9447000C9447000C9447000C94470044
:100020000C9447000C9447000C9447000C94470034
:100030000C9447000C9447000C9447000C94470024
:100040000C9447000C9447000C9447000C94470014
:100050000C94470011241FBECFE5D8E0DEBFCDBF12
:1000600010E0A0E6B0E0E6ECF0E002C005900D92F2
:10007000A036B107D9F710E0A0E6B0E001C01D92AC
:10008000A036B107E1F70E9449000C9461000C947E
:1000900000008FEF87BB89E190E04FEF18BA28E8A6
:1000A00033E1FC013197F1F721503040D1F748BBE3
:1000B00028E833E1FC013197F1F721503040D1F7C6
:0600C000EDCFF894FFCF24
:00000001FF
